{"abi":[{"type":"constructor","inputs":[{"name":"name_","type":"string","internalType":"string"},{"name":"symbol_","type":"string","internalType":"string"}],"stateMutability":"nonpayable"},{"type":"function","name":"MAX_SUPPLY","inputs":[],"outputs":[{"name":"","type":"uint256","internalType":"uint256"}],"stateMutability":"view"},{"type":"function","name":"approve","inputs":[{"name":"to","type":"address","internalType":"address"},{"name":"tokenId","type":"uint256","internalType":"uint256"}],"outputs":[],"stateMutability":"nonpayable"},{"type":"function","name":"balanceOf","inputs":[{"name":"owner","type":"address","internalType":"address"}],"outputs":[{"name":"","type":"uint256","internalType":"uint256"}],"stateMutability":"view"},{"type":"function","name":"getApproved","inputs":[{"name":"tokenId","type":"uint256","internalType":"uint256"}],"outputs":[{"name":"","type":"address","internalType":"address"}],"stateMutability":"view"},{"type":"function","name":"isApprovedForAll","inputs":[{"name":"owner","type":"address","internalType":"address"},{"name":"operator","type":"address","internalType":"address"}],"outputs":[{"name":"","type":"bool","internalType":"bool"}],"stateMutability":"view"},{"type":"function","name":"mint","inputs":[{"name":"to","type":"address","internalType":"address"}],"outputs":[],"stateMutability":"nonpayable"},{"type":"function","name":"name","inputs":[],"outputs":[{"name":"","type":"string","internalType":"string"}],"stateMutability":"view"},{"type":"function","name":"ownerOf","inputs":[{"name":"tokenId","type":"uint256","internalType":"uint256"}],"outputs":[{"name":"","type":"address","internalType":"address"}],"stateMutability":"view"},{"type":"function","name":"safeTransferFrom","inputs":[{"name":"from","type":"address","internalType":"address"},{"name":"to","type":"address","internalType":"address"},{"name":"tokenId","type":"uint256","internalType":"uint256"}],"outputs":[],"stateMutability":"nonpayable"},{"type":"function","name":"safeTransferFrom","inputs":[{"name":"from","type":"address","internalType":"address"},{"name":"to","type":"address","internalType":"address"},{"name":"tokenId","type":"uint256","internalType":"uint256"},{"name":"data","type":"bytes","internalType":"bytes"}],"outputs":[],"stateMutability":"nonpayable"},{"type":"function","name":"setApprovalForAll","inputs":[{"name":"operator","type":"address","internalType":"address"},{"name":"approved","type":"bool","internalType":"bool"}],"outputs":[],"stateMutability":"nonpayable"},{"type":"function","name":"supportsInterface","inputs":[{"name":"interfaceId","type":"bytes4","internalType":"bytes4"}],"outputs":[{"name":"","type":"bool","internalType":"bool"}],"stateMutability":"view"},{"type":"function","name":"symbol","inputs":[],"outputs":[{"name":"","type":"string","internalType":"string"}],"stateMutability":"view"},{"type":"function","name":"testMint","inputs":[{"name":"to","type":"address","internalType":"address"},{"name":"tokenId","type":"uint256","internalType":"uint256"}],"outputs":[],"stateMutability":"nonpayable"},{"type":"function","name":"tokenURI","inputs":[{"name":"tokenId","type":"uint256","internalType":"uint256"}],"outputs":[{"name":"","type":"string","internalType":"string"}],"stateMutability":"view"},{"type":"function","name":"transferFrom","inputs":[{"name":"from","type":"address","internalType":"address"},{"name":"to","type":"address","internalType":"address"},{"name":"tokenId","type":"uint256","internalType":"uint256"}],"outputs":[],"stateMutability":"nonpayable"},{"type":"event","name":"Approval","inputs":[{"name":"owner","type":"address","indexed":true,"internalType":"address"},{"name":"approved","type":"address","indexed":true,"internalType":"address"},{"name":"tokenId","type":"uint256","indexed":true,"internalType":"uint256"}],"anonymous":false},{"type":"event","name":"ApprovalForAll","inputs":[{"name":"owner","type":"address","indexed":true,"internalType":"address"},{"name":"operator","type":"address","indexed":true,"internalType":"address"},{"name":"approved","type":"bool","indexed":false,"internalType":"bool"}],"anonymous":false},{"type":"event","name":"Transfer","inputs":[{"name":"from","type":"address","indexed":true,"internalType":"address"},{"name":"to","type":"address","indexed":true,"internalType":"address"},{"name":"tokenId","type":"uint256","indexed":true,"internalType":"uint256"}],"anonymous":false}],"bytecode":{"object":"0x608060405234801561001057600080fd5b5060405161167338038061167383398101604081905261002f91610109565b600061003b83826101fb565b50600161004882826101fb565b5050506102b9565b634e487b7160e01b600052604160045260246000fd5b600082601f83011261007757600080fd5b81516001600160401b0381111561009057610090610050565b604051601f8201601f19908116603f011681016001600160401b03811182821017156100be576100be610050565b6040528181528382016020018510156100d657600080fd5b60005b828110156100f5576020818601810151838301820152016100d9565b506000918101602001919091529392505050565b6000806040838503121561011c57600080fd5b82516001600160401b0381111561013257600080fd5b61013e85828601610066565b602085015190935090506001600160401b0381111561015c57600080fd5b61016885828601610066565b9150509250929050565b600181811c9082168061018657607f821691505b6020821081036101a657634e487b7160e01b600052602260045260246000fd5b50919050565b601f8211156101f657806000526020600020601f840160051c810160208510156101d35750805b601f840160051c820191505b818110156101f357600081556001016101df565b50505b505050565b81516001600160401b0381111561021457610214610050565b610228816102228454610172565b846101ac565b6020601f82116001811461025c57600083156102445750848201515b600019600385901b1c1916600184901b1784556101f3565b600084815260208120601f198516915b8281101561028c578785015182556020948501946001909201910161026c565b50848210156102aa5786840151600019600387901b60f8161c191681555b50505050600190811b01905550565b6113ab806102c86000396000f3fe608060405234801561001057600080fd5b50600436106101005760003560e01c80636a62784211610097578063b88d4fde11610066578063b88d4fde14610213578063c87b56dd14610226578063e985e9c514610239578063f28e093d1461024c57600080fd5b80636a627842146101d257806370a08231146101e557806395d89b41146101f8578063a22cb4651461020057600080fd5b806323b872dd116100d357806323b872dd1461018257806332cb6b0c1461019557806342842e0e146101ac5780636352211e146101bf57600080fd5b806301ffc9a71461010557806306fdde031461012d578063081812fc14610142578063095ea7b31461016d575b600080fd5b610118610113366004610ead565b61025f565b60405190151581526020015b60405180910390f35b610135610296565b6040516101249190610f21565b610155610150366004610f34565b610328565b6040516001600160a01b039091168152602001610124565b61018061017b366004610f69565b6103a8565b005b610180610190366004610f93565b6104bd565b61019e61271081565b604051908152602001610124565b6101806101ba366004610f93565b6104ee565b6101556101cd366004610f34565b610509565b6101806101e0366004610fd0565b610569565b61019e6101f3366004610fd0565b6105d7565b61013561065d565b61018061020e366004610feb565b61066c565b61018061022136600461103d565b61067b565b610135610234366004610f34565b6106b3565b610118610247366004611121565b610761565b61018061025a366004610f69565b61078f565b60006001600160e01b031982166380ac58cd60e01b148061029057506001600160e01b03198216635b5e139f60e01b145b92915050565b6060600080546102a590611154565b80601f01602080910402602001604051908101604052809291908181526020018280546102d190611154565b801561031e5780601f106102f35761010080835404028352916020019161031e565b820191906000526020600020905b81548152906001019060200180831161030157829003601f168201915b5050505050905090565b6000818152600260205260408120546001600160a01b031661038c5760405162461bcd60e51b8152602060048201526018602482015277115490cdcc8c4e881a5b9d985b1a59081d1bdad95b88125160421b60448201526064015b60405180910390fd5b506000908152600460205260409020546001600160a01b031690565b60006103b382610509565b9050806001600160a01b0316836001600160a01b0316036104205760405162461bcd60e51b815260206004820152602160248201527f4552433732313a20617070726f76616c20746f2063757272656e74206f776e656044820152603960f91b6064820152608401610383565b336001600160a01b038216148061043c575061043c8133610761565b6104ae5760405162461bcd60e51b815260206004820152603d60248201527f4552433732313a20617070726f76652063616c6c6572206973206e6f7420746f60448201527f6b656e206f776e6572206f7220617070726f76656420666f7220616c6c0000006064820152608401610383565b6104b88383610799565b505050565b6104c73382610807565b6104e35760405162461bcd60e51b81526004016103839061118e565b6104b8838383610866565b6104b88383836040518060200160405280600081525061067b565b6000818152600260205260408120546001600160a01b0316806102905760405162461bcd60e51b8152602060048201526018602482015277115490cdcc8c4e881a5b9d985b1a59081d1bdad95b88125160421b6044820152606401610383565b612710600654106105b15760405162461bcd60e51b815260206004820152601260248201527113585e081cdd5c1c1b1e481c995858da195960721b6044820152606401610383565b6006546105be8282610a02565b600680549060006105ce836111f1565b91905055505050565b60006001600160a01b0382166106415760405162461bcd60e51b815260206004820152602960248201527f4552433732313a2061646472657373207a65726f206973206e6f7420612076616044820152683634b21037bbb732b960b91b6064820152608401610383565b506001600160a01b031660009081526003602052604090205490565b6060600180546102a590611154565b610677338383610a1c565b5050565b6106853383610807565b6106a15760405162461bcd60e51b81526004016103839061118e565b6106ad84848484610aea565b50505050565b6000818152600260205260409020546060906001600160a01b03166107325760405162461bcd60e51b815260206004820152602f60248201527f4552433732314d657461646174613a2055524920717565727920666f72206e6f60448201526e3732bc34b9ba32b73a103a37b5b2b760891b6064820152608401610383565b61073b82610b1d565b60405160200161074b919061120a565b6040516020818303038152906040529050919050565b6001600160a01b03918216600090815260056020908152604080832093909416825291909152205460ff1690565b6106778282610c1e565b600081815260046020526040902080546001600160a01b0319166001600160a01b03841690811790915581906107ce82610509565b6001600160a01b03167f8c5be1e5ebec7d5bd14f71427d1e84f3dd0314c0f7b2291e5b200ac8c7c3b92560405160405180910390a45050565b60008061081383610509565b9050806001600160a01b0316846001600160a01b0316148061083a575061083a8185610761565b8061085e5750836001600160a01b031661085384610328565b6001600160a01b0316145b949350505050565b826001600160a01b031661087982610509565b6001600160a01b0316146108dd5760405162461bcd60e51b815260206004820152602560248201527f4552433732313a207472616e736665722066726f6d20696e636f72726563742060448201526437bbb732b960d91b6064820152608401610383565b6001600160a01b03821661093f5760405162461bcd60e51b8152602060048201526024808201527f4552433732313a207472616e7366657220746f20746865207a65726f206164646044820152637265737360e01b6064820152608401610383565b61094a600082610799565b6001600160a01b038316600090815260036020526040812080546001929061097390849061124f565b90915550506001600160a01b03821660009081526003602052604081208054600192906109a1908490611262565b909155505060008181526002602052604080822080546001600160a01b0319166001600160a01b0386811691821790925591518493918716917fddf252ad1be2c89b69c2b068fc378daa952ba7f163c4a11628f55a4df523b3ef91a4505050565b610677828260405180602001604052806000815250610d60565b816001600160a01b0316836001600160a01b031603610a7d5760405162461bcd60e51b815260206004820152601960248201527f4552433732313a20617070726f766520746f2063616c6c6572000000000000006044820152606401610383565b6001600160a01b03838116600081815260056020908152604080832094871680845294825291829020805460ff191686151590811790915591519182527f17307eab39ab6107e8899845ad3d59bd9653f200f220920489ca2b5937696c31910160405180910390a3505050565b610af5848484610866565b610b0184848484610d93565b6106ad5760405162461bcd60e51b815260040161038390611275565b606081600003610b445750506040805180820190915260018152600360fc1b602082015290565b8160005b8115610b6e5780610b58816111f1565b9150610b679050600a836112dd565b9150610b48565b60008167ffffffffffffffff811115610b8957610b89611027565b6040519080825280601f01601f191660200182016040528015610bb3576020820181803683370190505b5090505b841561085e57610bc860018361124f565b9150610bd5600a866112f1565b610be0906030611262565b60f81b818381518110610bf557610bf5611305565b60200101906001600160f81b031916908160001a905350610c17600a866112dd565b9450610bb7565b6001600160a01b038216610c745760405162461bcd60e51b815260206004820181905260248201527f4552433732313a206d696e7420746f20746865207a65726f20616464726573736044820152606401610383565b6000818152600260205260409020546001600160a01b031615610cd95760405162461bcd60e51b815260206004820152601c60248201527f4552433732313a20746f6b656e20616c7265616479206d696e746564000000006044820152606401610383565b6001600160a01b0382166000908152600360205260408120805460019290610d02908490611262565b909155505060008181526002602052604080822080546001600160a01b0319166001600160a01b03861690811790915590518392907fddf252ad1be2c89b69c2b068fc378daa952ba7f163c4a11628f55a4df523b3ef908290a45050565b610d6a8383610c1e565b610d776000848484610d93565b6104b85760405162461bcd60e51b815260040161038390611275565b60006001600160a01b0384163b15610e8957604051630a85bd0160e11b81526001600160a01b0385169063150b7a0290610dd790339089908890889060040161131b565b6020604051808303816000875af1925050508015610e12575060408051601f3d908101601f19168201909252610e0f91810190611358565b60015b610e6f573d808015610e40576040519150601f19603f3d011682016040523d82523d6000602084013e610e45565b606091505b508051600003610e675760405162461bcd60e51b815260040161038390611275565b805181602001fd5b6001600160e01b031916630a85bd0160e11b14905061085e565b506001949350505050565b6001600160e01b031981168114610eaa57600080fd5b50565b600060208284031215610ebf57600080fd5b8135610eca81610e94565b9392505050565b60005b83811015610eec578181015183820152602001610ed4565b50506000910152565b60008151808452610f0d816020860160208601610ed1565b601f01601f19169290920160200192915050565b602081526000610eca6020830184610ef5565b600060208284031215610f4657600080fd5b5035919050565b80356001600160a01b0381168114610f6457600080fd5b919050565b60008060408385031215610f7c57600080fd5b610f8583610f4d565b946020939093013593505050565b600080600060608486031215610fa857600080fd5b610fb184610f4d565b9250610fbf60208501610f4d565b929592945050506040919091013590565b600060208284031215610fe257600080fd5b610eca82610f4d565b60008060408385031215610ffe57600080fd5b61100783610f4d565b91506020830135801515811461101c57600080fd5b809150509250929050565b634e487b7160e01b600052604160045260246000fd5b6000806000806080858703121561105357600080fd5b61105c85610f4d565b935061106a60208601610f4d565b925060408501359150606085013567ffffffffffffffff81111561108d57600080fd5b8501601f8101871361109e57600080fd5b803567ffffffffffffffff8111156110b8576110b8611027565b604051601f8201601f19908116603f0116810167ffffffffffffffff811182821017156110e7576110e7611027565b6040528181528282016020018910156110ff57600080fd5b8160208401602083013760006020838301015280935050505092959194509250565b6000806040838503121561113457600080fd5b61113d83610f4d565b915061114b60208401610f4d565b90509250929050565b600181811c9082168061116857607f821691505b60208210810361118857634e487b7160e01b600052602260045260246000fd5b50919050565b6020808252602d908201527f4552433732313a2063616c6c6572206973206e6f7420746f6b656e206f776e6560408201526c1c881bdc88185c1c1c9bdd9959609a1b606082015260800190565b634e487b7160e01b600052601160045260246000fd5b600060018201611203576112036111db565b5060010190565b7f68747470733a2f2f6578616d706c652e636f6d2f746f6b656e2f00000000000081526000825161124281601a850160208701610ed1565b91909101601a0192915050565b81810381811115610290576102906111db565b80820180821115610290576102906111db565b60208082526032908201527f4552433732313a207472616e7366657220746f206e6f6e20455243373231526560408201527131b2b4bb32b91034b6b83632b6b2b73a32b960711b606082015260800190565b634e487b7160e01b600052601260045260246000fd5b6000826112ec576112ec6112c7565b500490565b600082611300576113006112c7565b500690565b634e487b7160e01b600052603260045260246000fd5b6001600160a01b038581168252841660208201526040810183905260806060820181905260009061134e90830184610ef5565b9695505050505050565b60006020828403121561136a57600080fd5b8151610eca81610e9456fea2646970667358221220269666c084de39f072ff3bc3a988f71137c44a8cee25a345334ded979acfeab664736f6c634300081c0033","linkReferences":{}},"methodIdentifiers":{"MAX_SUPPLY()":"32cb6b0c","approve(address,uint256)":"095ea7b3","balanceOf(address)":"70a08231","getApproved(uint256)":"081812fc","isApprovedForAll(address,address)":"e985e9c5","mint(address)":"6a627842","name()":"06fdde03","ownerOf(uint256)":"6352211e","safeTransferFrom(address,address,uint256)":"42842e0e","safeTransferFrom(address,address,uint256,bytes)":"b88d4fde","setApprovalForAll(address,bool)":"a22cb465","supportsInterface(bytes4)":"01ffc9a7","symbol()":"95d89b41","testMint(address,uint256)":"f28e093d","tokenURI(uint256)":"c87b56dd","transferFrom(address,address,uint256)":"23b872dd"},"id":3}