{"abi":[{"type":"function","name":"MIN_PURCHASE","inputs":[],"outputs":[{"name":"","type":"uint256","internalType":"uint256"}],"stateMutability":"view"},{"type":"function","name":"PRICE_PER_TOKEN","inputs":[],"outputs":[{"name":"","type":"uint256","internalType":"uint256"}],"stateMutability":"view"},{"type":"function","name":"buyTokens","inputs":[{"name":"amount","type":"uint256","internalType":"uint256"}],"outputs":[],"stateMutability":"payable"},{"type":"function","name":"endPresale","inputs":[],"outputs":[],"stateMutability":"nonpayable"},{"type":"function","name":"presaleActive","inputs":[],"outputs":[{"name":"","type":"bool","internalType":"bool"}],"stateMutability":"view"},{"type":"function","name":"startPresale","inputs":[],"outputs":[],"stateMutability":"nonpayable"},{"type":"event","name":"TokensPurchased","inputs":[{"name":"buyer","type":"address","indexed":true,"internalType":"address"},{"name":"amount","type":"uint256","indexed":false,"internalType":"uint256"}],"anonymous":false}],"bytecode":{"object":"0x6080604052348015600f57600080fd5b5061060b8061001f6000396000f3fe6080604052600436106100555760003560e01c806304c98b2b1461005a5780633610724e1461007157806353135ca014610084578063833b9499146100b3578063a43be57b146100dc578063d439390c146100f1575b600080fd5b34801561006657600080fd5b5061006f61010c565b005b61006f61007f3660046104da565b61016d565b34801561009057600080fd5b5060005461009e9060ff1681565b60405190151581526020015b60405180910390f35b3480156100bf57600080fd5b506100ce66766c7d7483555581565b6040519081526020016100aa565b3480156100e857600080fd5b5061006f610485565b3480156100fd57600080fd5b506100ce662386f26fc1000081565b7fc8fcad8db84d3cc18b4c41d551ea0ee66dd599cde068d998e57d5e09332c1320546001600160a01b0316331461015e5760405162461bcd60e51b8152600401610155906104f3565b60405180910390fd5b6000805460ff19166001179055565b60005460ff166101b75760405162461bcd60e51b815260206004820152601560248201527450726573616c65206973206e6f742061637469766560581b6044820152606401610155565b662386f26fc1000034101561020e5760405162461bcd60e51b815260206004820152601860248201527f4d696e696d756d207075726368617365206e6f74206d657400000000000000006044820152606401610155565b6000811161025e5760405162461bcd60e51b815260206004820152601d60248201527f416d6f756e74206d7573742062652067726561746572207468616e20300000006044820152606401610155565b600061027166766c7d748355558361054a565b9050803410156102b95760405162461bcd60e51b8152602060048201526013602482015272139bdd08195b9bdd59da08115512081cd95b9d606a1b6044820152606401610155565b60005b8281101561040757600030337fc8fcad8db84d3cc18b4c41d551ea0ee66dd599cde068d998e57d5e09332c131c600801546102f8906001610567565b6040516001600160a01b039092166024830152604482015260640160408051601f198184030181529181526020820180516001600160e01b03166340c10f1960e01b17905251610348919061057a565b600060405180830381855af49150503d8060008114610383576040519150601f19603f3d011682016040523d82523d6000602084013e610388565b606091505b50509050806103ca5760405162461bcd60e51b815260206004820152600e60248201526d135a5b9d1a5b99c819985a5b195960921b6044820152606401610155565b7fc8fcad8db84d3cc18b4c41d551ea0ee66dd599cde068d998e57d5e09332c132480549060006103f9836105a9565b9091555050506001016102bc565b50600061041482346105c2565b9050801561044b57604051339082156108fc029083906000818181858888f19350505050158015610449573d6000803e3d6000fd5b505b60405183815233907f8f28852646c20cc973d3a8218f7eefed58c25c909f78f0265af4818c3d4dc2719060200160405180910390a2505050565b7fc8fcad8db84d3cc18b4c41d551ea0ee66dd599cde068d998e57d5e09332c1320546001600160a01b031633146104ce5760405162461bcd60e51b8152600401610155906104f3565b6000805460ff19169055565b6000602082840312156104ec57600080fd5b5035919050565b60208082526021908201527f4f6e6c79206f776e65722063616e2063616c6c20746869732066756e6374696f6040820152603760f91b606082015260800190565b634e487b7160e01b600052601160045260246000fd5b808202811582820484141761056157610561610534565b92915050565b8082018082111561056157610561610534565b6000825160005b8181101561059b5760208186018101518583015201610581565b506000920191825250919050565b6000600182016105bb576105bb610534565b5060010190565b818103818111156105615761056161053456fea2646970667358221220e7df73b82b8695cd19ba32b298a9d35b383de7874510852cf11c10cae4b6d85f64736f6c634300081c0033","linkReferences":{}},"methodIdentifiers":{"MIN_PURCHASE()":"d439390c","PRICE_PER_TOKEN()":"833b9499","buyTokens(uint256)":"3610724e","endPresale()":"a43be57b","presaleActive()":"53135ca0","startPresale()":"04c98b2b"},"id":5}