{"abi":[{"type":"function","name":"claim","inputs":[{"name":"_merkleProof","type":"bytes32[]","internalType":"bytes32[]"}],"outputs":[],"stateMutability":"nonpayable"},{"type":"function","name":"claimed","inputs":[{"name":"","type":"address","internalType":"address"}],"outputs":[{"name":"","type":"bool","internalType":"bool"}],"stateMutability":"view"},{"type":"function","name":"merkleRoot","inputs":[],"outputs":[{"name":"","type":"bytes32","internalType":"bytes32"}],"stateMutability":"view"},{"type":"function","name":"setMerkleRoot","inputs":[{"name":"_merkleRoot","type":"bytes32","internalType":"bytes32"}],"outputs":[],"stateMutability":"nonpayable"},{"type":"function","name":"totalMinted","inputs":[],"outputs":[{"name":"","type":"uint256","internalType":"uint256"}],"stateMutability":"view"},{"type":"event","name":"Claimed","inputs":[{"name":"claimer","type":"address","indexed":true,"internalType":"address"},{"name":"tokenId","type":"uint256","indexed":false,"internalType":"uint256"}],"anonymous":false}],"bytecode":{"object":"0x6080604052348015600f57600080fd5b506105b88061001f6000396000f3fe608060405234801561001057600080fd5b50600436106100575760003560e01c80632eb4a7ab1461005c5780637cb6475914610078578063a2309ff81461008d578063b391c50814610096578063c884ef83146100a9575b600080fd5b61006560005481565b6040519081526020015b60405180910390f35b61008b610086366004610456565b6100dc565b005b61006560025481565b61008b6100a436600461046f565b61015f565b6100cc6100b73660046104e6565b60016020526000908152604090205460ff1681565b604051901515815260200161006f565b7fc8fcad8db84d3cc18b4c41d551ea0ee66dd599cde068d998e57d5e09332c1320546001600160a01b0316331461015a5760405162461bcd60e51b815260206004820152601e60248201527f4f6e6c79206f776e65722063616e20736574206d65726b6c6520726f6f74000060448201526064015b60405180910390fd5b600055565b3360009081526001602052604090205460ff16156101bf5760405162461bcd60e51b815260206004820152601b60248201527f416464726573732068617320616c726561647920636c61696d656400000000006044820152606401610151565b6040516bffffffffffffffffffffffff193360601b16602082015260009060340160405160208183030381529060405280519060200120905061023783838080602002602001604051908101604052809392919081815260200183836020028082843760009201829052505492508591506103b19050565b61027a5760405162461bcd60e51b815260206004820152601460248201527324b73b30b634b21036b2b935b63290383937b7b360611b6044820152606401610151565b336000818152600160208190526040808320805460ff191690921790915551602481019290925290309060440160408051601f198184030181529181526020820180516001600160e01b03166335313c2160e11b179052516102dc9190610516565b600060405180830381855af49150503d8060008114610317576040519150601f19603f3d011682016040523d82523d6000602084013e61031c565b606091505b505090508061035e5760405162461bcd60e51b815260206004820152600e60248201526d135a5b9d1a5b99c819985a5b195960921b6044820152606401610151565b6002805490600061036e83610545565b909155505060025460405190815233907fd8138f8a3f377c5259ca548e70e4c2de94f129f5a11036a15b69513cba2b426a9060200160405180910390a250505050565b600081815b855181101561044b5760008682815181106103d3576103d361056c565b60200260200101519050808311610415576040805160208101859052908101829052606001604051602081830303815290604052805190602001209250610442565b60408051602081018390529081018490526060016040516020818303038152906040528051906020012092505b506001016103b6565b509092149392505050565b60006020828403121561046857600080fd5b5035919050565b6000806020838503121561048257600080fd5b823567ffffffffffffffff81111561049957600080fd5b8301601f810185136104aa57600080fd5b803567ffffffffffffffff8111156104c157600080fd5b8560208260051b84010111156104d657600080fd5b6020919091019590945092505050565b6000602082840312156104f857600080fd5b81356001600160a01b038116811461050f57600080fd5b9392505050565b6000825160005b81811015610537576020818601810151858301520161051d565b506000920191825250919050565b60006001820161056557634e487b7160e01b600052601160045260246000fd5b5060010190565b634e487b7160e01b600052603260045260246000fdfea26469706673582212202b0fe599d71199687f164d7d326d97ffc8dae762643aa82d000a46d92479b37464736f6c634300081c0033","linkReferences":{}},"methodIdentifiers":{"claim(bytes32[])":"b391c508","claimed(address)":"c884ef83","merkleRoot()":"2eb4a7ab","setMerkleRoot(bytes32)":"7cb64759","totalMinted()":"a2309ff8"},"id":4}